{
  "_format": "hh-sol-artifact-1",
  "contractName": "GovernanceDAO",
  "sourceName": "contracts/GovernanceDAO.sol",
  "abi": [
    {
      "inputs": [
        {
          "internalType": "address",
          "name": "_usdcToken",
          "type": "address"
        }
      ],
      "stateMutability": "nonpayable",
      "type": "constructor"
    },
    {
      "inputs": [
        {
          "internalType": "address",
          "name": "owner",
          "type": "address"
        }
      ],
      "name": "OwnableInvalidOwner",
      "type": "error"
    },
    {
      "inputs": [
        {
          "internalType": "address",
          "name": "account",
          "type": "address"
        }
      ],
      "name": "OwnableUnauthorizedAccount",
      "type": "error"
    },
    {
      "anonymous": false,
      "inputs": [
        {
          "indexed": true,
          "internalType": "address",
          "name": "previousOwner",
          "type": "address"
        },
        {
          "indexed": true,
          "internalType": "address",
          "name": "newOwner",
          "type": "address"
        }
      ],
      "name": "OwnershipTransferred",
      "type": "event"
    },
    {
      "anonymous": false,
      "inputs": [
        {
          "indexed": true,
          "internalType": "uint256",
          "name": "proposalId",
          "type": "uint256"
        },
        {
          "indexed": true,
          "internalType": "address",
          "name": "proposer",
          "type": "address"
        },
        {
          "indexed": false,
          "internalType": "string",
          "name": "title",
          "type": "string"
        },
        {
          "indexed": false,
          "internalType": "enum GovernanceDAO.ProposalType",
          "name": "proposalType",
          "type": "uint8"
        }
      ],
      "name": "ProposalCreated",
      "type": "event"
    },
    {
      "anonymous": false,
      "inputs": [
        {
          "indexed": true,
          "internalType": "uint256",
          "name": "proposalId",
          "type": "uint256"
        }
      ],
      "name": "ProposalExecuted",
      "type": "event"
    },
    {
      "anonymous": false,
      "inputs": [
        {
          "indexed": true,
          "internalType": "uint256",
          "name": "proposalId",
          "type": "uint256"
        },
        {
          "indexed": false,
          "internalType": "enum GovernanceDAO.ProposalStatus",
          "name": "status",
          "type": "uint8"
        }
      ],
      "name": "ProposalStatusChanged",
      "type": "event"
    },
    {
      "anonymous": false,
      "inputs": [
        {
          "indexed": true,
          "internalType": "uint256",
          "name": "proposalId",
          "type": "uint256"
        },
        {
          "indexed": true,
          "internalType": "address",
          "name": "voter",
          "type": "address"
        },
        {
          "indexed": false,
          "internalType": "bool",
          "name": "support",
          "type": "bool"
        },
        {
          "indexed": false,
          "internalType": "uint256",
          "name": "weight",
          "type": "uint256"
        }
      ],
      "name": "Voted",
      "type": "event"
    },
    {
      "inputs": [],
      "name": "MAX_VOTING_PERIOD",
      "outputs": [
        {
          "internalType": "uint256",
          "name": "",
          "type": "uint256"
        }
      ],
      "stateMutability": "view",
      "type": "function"
    },
    {
      "inputs": [],
      "name": "MIN_VOTING_PERIOD",
      "outputs": [
        {
          "internalType": "uint256",
          "name": "",
          "type": "uint256"
        }
      ],
      "stateMutability": "view",
      "type": "function"
    },
    {
      "inputs": [
        {
          "internalType": "string",
          "name": "title",
          "type": "string"
        },
        {
          "internalType": "string",
          "name": "description",
          "type": "string"
        },
        {
          "internalType": "enum GovernanceDAO.ProposalType",
          "name": "proposalType",
          "type": "uint8"
        },
        {
          "internalType": "uint256",
          "name": "votingPeriod",
          "type": "uint256"
        }
      ],
      "name": "createProposal",
      "outputs": [
        {
          "internalType": "uint256",
          "name": "",
          "type": "uint256"
        }
      ],
      "stateMutability": "nonpayable",
      "type": "function"
    },
    {
      "inputs": [
        {
          "internalType": "uint256",
          "name": "proposalId",
          "type": "uint256"
        }
      ],
      "name": "executeProposal",
      "outputs": [],
      "stateMutability": "nonpayable",
      "type": "function"
    },
    {
      "inputs": [],
      "name": "getActiveProposals",
      "outputs": [
        {
          "internalType": "uint256[]",
          "name": "",
          "type": "uint256[]"
        }
      ],
      "stateMutability": "view",
      "type": "function"
    },
    {
      "inputs": [
        {
          "internalType": "uint256",
          "name": "proposalId",
          "type": "uint256"
        }
      ],
      "name": "getProposal",
      "outputs": [
        {
          "internalType": "uint256",
          "name": "id",
          "type": "uint256"
        },
        {
          "internalType": "string",
          "name": "title",
          "type": "string"
        },
        {
          "internalType": "string",
          "name": "description",
          "type": "string"
        },
        {
          "internalType": "enum GovernanceDAO.ProposalType",
          "name": "proposalType",
          "type": "uint8"
        },
        {
          "internalType": "enum GovernanceDAO.ProposalStatus",
          "name": "status",
          "type": "uint8"
        },
        {
          "internalType": "uint256",
          "name": "votesFor",
          "type": "uint256"
        },
        {
          "internalType": "uint256",
          "name": "votesAgainst",
          "type": "uint256"
        },
        {
          "internalType": "uint256",
          "name": "totalVotes",
          "type": "uint256"
        },
        {
          "internalType": "address",
          "name": "proposer",
          "type": "address"
        },
        {
          "internalType": "uint256",
          "name": "startTime",
          "type": "uint256"
        },
        {
          "internalType": "uint256",
          "name": "endTime",
          "type": "uint256"
        },
        {
          "internalType": "uint256",
          "name": "requiredVotes",
          "type": "uint256"
        }
      ],
      "stateMutability": "view",
      "type": "function"
    },
    {
      "inputs": [
        {
          "internalType": "address",
          "name": "user",
          "type": "address"
        }
      ],
      "name": "getVotingPower",
      "outputs": [
        {
          "internalType": "uint256",
          "name": "",
          "type": "uint256"
        }
      ],
      "stateMutability": "view",
      "type": "function"
    },
    {
      "inputs": [
        {
          "internalType": "uint256",
          "name": "",
          "type": "uint256"
        },
        {
          "internalType": "address",
          "name": "",
          "type": "address"
        }
      ],
      "name": "hasVoted",
      "outputs": [
        {
          "internalType": "bool",
          "name": "",
          "type": "bool"
        }
      ],
      "stateMutability": "view",
      "type": "function"
    },
    {
      "inputs": [],
      "name": "minQuorumBps",
      "outputs": [
        {
          "internalType": "uint256",
          "name": "",
          "type": "uint256"
        }
      ],
      "stateMutability": "view",
      "type": "function"
    },
    {
      "inputs": [],
      "name": "owner",
      "outputs": [
        {
          "internalType": "address",
          "name": "",
          "type": "address"
        }
      ],
      "stateMutability": "view",
      "type": "function"
    },
    {
      "inputs": [
        {
          "internalType": "uint256",
          "name": "",
          "type": "uint256"
        }
      ],
      "name": "proposals",
      "outputs": [
        {
          "internalType": "uint256",
          "name": "id",
          "type": "uint256"
        },
        {
          "internalType": "string",
          "name": "title",
          "type": "string"
        },
        {
          "internalType": "string",
          "name": "description",
          "type": "string"
        },
        {
          "internalType": "enum GovernanceDAO.ProposalType",
          "name": "proposalType",
          "type": "uint8"
        },
        {
          "internalType": "enum GovernanceDAO.ProposalStatus",
          "name": "status",
          "type": "uint8"
        },
        {
          "internalType": "uint256",
          "name": "votesFor",
          "type": "uint256"
        },
        {
          "internalType": "uint256",
          "name": "votesAgainst",
          "type": "uint256"
        },
        {
          "internalType": "uint256",
          "name": "totalVotes",
          "type": "uint256"
        },
        {
          "internalType": "address",
          "name": "proposer",
          "type": "address"
        },
        {
          "internalType": "uint256",
          "name": "startTime",
          "type": "uint256"
        },
        {
          "internalType": "uint256",
          "name": "endTime",
          "type": "uint256"
        },
        {
          "internalType": "uint256",
          "name": "requiredVotes",
          "type": "uint256"
        },
        {
          "internalType": "bool",
          "name": "executed",
          "type": "bool"
        }
      ],
      "stateMutability": "view",
      "type": "function"
    },
    {
      "inputs": [],
      "name": "renounceOwnership",
      "outputs": [],
      "stateMutability": "nonpayable",
      "type": "function"
    },
    {
      "inputs": [
        {
          "internalType": "uint256",
          "name": "newQuorumBps",
          "type": "uint256"
        }
      ],
      "name": "setMinQuorum",
      "outputs": [],
      "stateMutability": "nonpayable",
      "type": "function"
    },
    {
      "inputs": [
        {
          "internalType": "address",
          "name": "newOwner",
          "type": "address"
        }
      ],
      "name": "transferOwnership",
      "outputs": [],
      "stateMutability": "nonpayable",
      "type": "function"
    },
    {
      "inputs": [],
      "name": "usdcToken",
      "outputs": [
        {
          "internalType": "contract IERC20",
          "name": "",
          "type": "address"
        }
      ],
      "stateMutability": "view",
      "type": "function"
    },
    {
      "inputs": [
        {
          "internalType": "uint256",
          "name": "proposalId",
          "type": "uint256"
        },
        {
          "internalType": "bool",
          "name": "support",
          "type": "bool"
        }
      ],
      "name": "vote",
      "outputs": [],
      "stateMutability": "nonpayable",
      "type": "function"
    }
  ],
  "bytecode": "0x60a03461012e57601f6116bd38819003918201601f19168301916001600160401b038311848410176101335780849260209460405283398101031261012e57516001600160a01b038082169182900361012e573315610115576000543360018060a01b0319821617600055604051913391167f8be0079c531659141344cd1fd0a4f28419497f9722a3daafe3b4186f6b6457e0600080a36103e860045581156100d35750608052604051611573908161014a82396080518181816101fe015281816105d9015281816107890152610fc00152f35b62461bcd60e51b815260206004820152601560248201527f496e76616c696420746f6b656e206164647265737300000000000000000000006044820152606490fd5b604051631e4fbdf760e01b815260006004820152602490fd5b600080fd5b634e487b7160e01b600052604160045260246000fdfe6080604052600436101561001257600080fd5b60003560e01c8063013cf08b146111665780630d61b51914610fef57806311eac85514610faa578063215809ca14610f8c57806340d7383514610f6e5780634385963214610f1c5780635584c4f914610d73578063563909de14610cf95780636687d63d146106e0578063715018a6146106875780638da5cb5b1461065e578063a64e024a14610640578063bb4d443614610598578063c7f758a8146103e7578063c9d27afe1461015f5763f2fde38b146100cc57600080fd5b3461015a57602036600319011261015a576100e56113e7565b6100ed61142b565b6001600160a01b0390811690811561014157600054826bffffffffffffffffffffffff60a01b821617600055167f8be0079c531659141344cd1fd0a4f28419497f9722a3daafe3b4186f6b6457e0600080a3005b604051631e4fbdf760e01b815260006004820152602490fd5b600080fd5b3461015a57604036600319011261015a5760248035801515916004359183810361015a5782600052602090600282526040600020906101a0858354146114d9565b60ff600383015460081c166101b4816113c7565b6103ad576009820154421015610373578460005260038352604060002033600052835260ff6040600020541661033f576040516370a0823160e01b815233600482015293838582817f00000000000000000000000000000000000000000000000000000000000000006001600160a01b03165afa94851561033357600095610304575b5084156102cf5750600085815260038452604080822033835285529020805460ff1916600117905560069190156102b95760048101610277858254611466565b90555b01610286838254611466565b90556040519384528301527f7c2de587c00d75474a0c6c6fa96fd3b45dc974cd4e8a75f712bb84c950dce1b560403393a3005b600581016102c8858254611466565b905561027a565b83600f6064926040519262461bcd60e51b845260048401528201526e2737903b37ba34b733903837bbb2b960891b6044820152fd5b9094508381813d831161032c575b61031c81836112bf565b8101031261015a57519387610237565b503d610312565b6040513d6000823e3d90fd5b60405162461bcd60e51b815260048101849052600d818601526c105b1c9958591e481d9bdd1959609a1b6044820152606490fd5b60405162461bcd60e51b81526004810184905260138186015272159bdd1a5b99c81c195c9a5bd908195b991959606a1b6044820152606490fd5b60405162461bcd60e51b8152600481018490526013818601527250726f706f73616c206e6f742061637469766560681b6044820152606490fd5b3461015a57602036600319011261015a576004356000526002602052610180604060002060ff600b6040519261041c846112a2565b8054845261042c600182016112e1565b602085015261043d600282016112e1565b6040850152826003820154818116610454816113c7565b606087015260081c16610466816113c7565b6080850152600481015460a0850152600581015460c0850152600681015460e085015260078101546001600160a01b031661010085015260088101546101208501526009810154610140850152600a81015461016085015201541615158282015280516020820151604083015160608401519293906104e4846113c7565b60808201516104f2816113c7565b60a083015160c084015160e08501519160018060a01b036101008701511693610550610120880151966105426101606101408b01519a01519a6040519e8f9e8f9081528160208201520190611387565b8c810360408e015290611387565b9861055a816113c7565b60608b0152610568816113c7565b60808a015260a089015260c088015260e08701526101008601526101208501526101408401526101608301520390f35b3461015a5760208060031936011261015a576024816105b56113e7565b6040516370a0823160e01b81526001600160a01b03918216600482015292839182907f0000000000000000000000000000000000000000000000000000000000000000165afa90811561033357600091610613575b50604051908152f35b90508181813d8311610639575b61062a81836112bf565b8101031261015a57518261060a565b503d610620565b3461015a57600036600319011261015a57602060405162278d008152f35b3461015a57600036600319011261015a576000546040516001600160a01b039091168152602090f35b3461015a57600036600319011261015a576106a061142b565b600080546001600160a01b0319811682556001600160a01b03167f8be0079c531659141344cd1fd0a4f28419497f9722a3daafe3b4186f6b6457e08280a3005b3461015a57608036600319011261015a5760043567ffffffffffffffff811161015a576107119036906004016113fd565b60243567ffffffffffffffff811161015a576107319036906004016113fd565b6004604493929335101561015a57606435926203f48084101580610cec575b15610caf578215610c72576107746001549461076b86611457565b60015542611466565b6040516318160ddd60e01b81526020816004817f00000000000000000000000000000000000000000000000000000000000000006001600160a01b03165afa90811561033357600091610c40575b50600454918183810204831482151715610c2a5761080461271094604051966107ea886112a2565b8988526107f8368a8d611473565b60208901523691611473565b60408601526108146044356113c7565b604435606086015260006080860152600060a0860152600060c0860152600060e086015233610100860152426101208601526101408501520204610160820152600061018082015282600052600260205260406000209080518255602081015180519067ffffffffffffffff8211610b445781906108956001860154611268565b601f8111610bd7575b50602090601f8311600114610b6557600092610b5a575b50508160011b916000199060031b1c19161760018301555b60408101519182519267ffffffffffffffff8411610b44576108f26002830154611268565b601f8111610afd575b50916020969186938890601f8711600114610a69579580917fe0269f7953e70365e80e614e4efe7d4bede59b7f5ad80982ea4064c97ee6f4ef9697600092610a5e575b50508160011b916000199060031b1c19161760028201555b60ff610180600b600384019361099e606087015195610974876113c7565b61097d876113c7565b85199686888354169116178155608088015190610999826113c7565b6114ba565b60a0860151600482015560c0860151600582015560e086015160068201556007810160018060a01b03610100880151166bffffffffffffffffffffffff60a01b82541617905561012086015160088201556101408601516009820155610160860151600a8201550193015115159183541691161790558360405191604083528160408401526060830137600060608583010152610a3c6044356113c7565b604435818701523393601f01601f1916810181900360600190a3604051908152f35b015190508a8061093e565b959060028301600052896000209660005b601f1984168110610ae357509682917fe0269f7953e70365e80e614e4efe7d4bede59b7f5ad80982ea4064c97ee6f4ef9798600194601f19811610610aca575b505050811b016002820155610956565b015160001960f88460031b161c191690558a8080610aba565b8282015189556001909801978a9750918b01918b01610a7a565b600283016000526020600020601f860160051c810160208710610b3d575b601f830160051c82018110610b315750506108fb565b60008155600101610b1b565b5080610b1b565b634e487b7160e01b600052604160045260246000fd5b0151905087806108b5565b9250600185016000526020600020906000935b601f1984168510610bbc576001945083601f19811610610ba3575b505050811b0160018301556108cd565b015160001960f88460031b161c19169055878080610b93565b81810151835560209485019460019093019290910190610b78565b909150600185016000526020600020601f840160051c810160208510610c23575b90849392915b601f830160051c82018110610c1457505061089e565b60008155859450600101610bfe565b5080610bf8565b634e487b7160e01b600052601160045260246000fd5b90506020813d602011610c6a575b81610c5b602093836112bf565b8101031261015a5751876107c2565b3d9150610c4e565b60405162461bcd60e51b81526020600482015260156024820152745469746c652063616e6e6f7420626520656d70747960581b6044820152606490fd5b60405162461bcd60e51b8152602060048201526015602482015274125b9d985b1a59081d9bdd1a5b99c81c195c9a5bd9605a1b6044820152606490fd5b5062278d00841115610750565b3461015a57602036600319011261015a57600435610d1561142b565b606481101580610d67575b15610d2a57600455005b60405162461bcd60e51b815260206004820152601560248201527451756f72756d206d7573742062652031252d35302560581b6044820152606490fd5b50611388811115610d20565b3461015a57600036600319011261015a57600180546000805b828110610eac575082610db7610da183611525565b92610daf60405194856112bf565b808452611525565b6020838101949091601f19013686376000805b828110610e0c5750505060405192818401908285525180915260408401949160005b828110610df95785870386f35b8351875295810195928101928401610dec565b80600097959796949652600280875260ff60036040600020015460081c16610e33816113c7565b159081610e93575b50610e55575b610e4a90611457565b959395949294610dca565b90610e5f81611457565b918451821015610e7d578087610e4a9360051b870101529050610e41565b634e487b7160e01b600052603260045260246000fd5b9050816000528652600960406000200154421088610e3b565b80600052600260209080825260ff60036040600020015460081c16610ed0816113c7565b159182610f02575b5050610eed575b610ee890611457565b610d8c565b90610efa610ee891611457565b919050610edf565b909150826000525260096040600020015442108580610ed8565b3461015a57604036600319011261015a576024356001600160a01b0381169081900361015a576004356000526003602052604060002090600052602052602060ff604060002054166040519015158152f35b3461015a57600036600319011261015a576020600454604051908152f35b3461015a57600036600319011261015a5760206040516203f4808152f35b3461015a57600036600319011261015a576040517f00000000000000000000000000000000000000000000000000000000000000006001600160a01b03168152602090f35b3461015a57602036600319011261015a57600435806000526002602052604060002061101d828254146114d9565b600b810160ff81541661112e57600982015442106110e957602060ff837f3346abf262ac5179e9052765fb72484e0baab1f356f08442bb7a3054147631de93600487960154600583015410806110d7575b156110ca5761108460036001935b0192836114ba565b600183198254161790555460081c16604051906110a0816113c7565b8152a27f712ae1383f79ac853f8d882153778e0260ef8f03b504e2866e0593e04d2b291f600080a2005b611084600360029361107c565b506006820154600a830154111561106e565b60405162461bcd60e51b815260206004820152601760248201527f566f74696e6720706572696f64206e6f7420656e6465640000000000000000006044820152606490fd5b60405162461bcd60e51b815260206004820152601060248201526f105b1c9958591e48195e1958dd5d195960821b6044820152606490fd5b3461015a57602036600319011261015a57600435600052600260205260406000208054611195600183016112e1565b916111a2600282016112e1565b60038201549160ff8084169360081c1660048201546005830154600684015460018060a01b036007860154169160088601549360098701549561121860ff600b600a8b01549a0154169961120a6040519e8f9e8f9081526101a0908160208201520190611387565b8d810360408f015290611387565b99611222816113c7565b60608c0152611230816113c7565b60808b015260a08a015260c089015260e088015261010087015261012086015261014085015261016084015215156101808301520390f35b90600182811c92168015611298575b602083101461128257565b634e487b7160e01b600052602260045260246000fd5b91607f1691611277565b6101a0810190811067ffffffffffffffff821117610b4457604052565b90601f8019910116810190811067ffffffffffffffff821117610b4457604052565b90604051918260008254926112f584611268565b9081845260019485811690816000146113645750600114611321575b505061131f925003836112bf565b565b9093915060005260209081600020936000915b81831061134c57505061131f93508201013880611311565b85548884018501529485019487945091830191611334565b91505061131f94506020925060ff191682840152151560051b8201013880611311565b919082519283825260005b8481106113b3575050826000602080949584010152601f8019910116010190565b602081830181015184830182015201611392565b600411156113d157565b634e487b7160e01b600052602160045260246000fd5b600435906001600160a01b038216820361015a57565b9181601f8401121561015a5782359167ffffffffffffffff831161015a576020838186019501011161015a57565b6000546001600160a01b0316330361143f57565b60405163118cdaa760e01b8152336004820152602490fd5b6000198114610c2a5760010190565b91908201809211610c2a57565b92919267ffffffffffffffff8211610b44576040519161149d601f8201601f1916602001846112bf565b82948184528183011161015a578281602093846000960137010152565b906114c4816113c7565b61ff0082549160081b169061ff001916179055565b156114e057565b60405162461bcd60e51b815260206004820152601760248201527f50726f706f73616c20646f6573206e6f742065786973740000000000000000006044820152606490fd5b67ffffffffffffffff8111610b445760051b6020019056fea26469706673582212208cc1091cdfb5db172414fc798e45cf59443cbf501b539c2744a0430dd6862bc564736f6c63430008140033",
  "linkReferences": {},
  "deployedLinkReferences": {}
}