{
  "_format": "hh-sol-artifact-1",
  "contractName": "MockUSDC",
  "sourceName": "contracts/MockUSDC.sol",
  "abi": [
    {
      "inputs": [
        {
          "internalType": "uint256",
          "name": "initialSupply",
          "type": "uint256"
        }
      ],
      "stateMutability": "nonpayable",
      "type": "constructor"
    },
    {
      "inputs": [
        {
          "internalType": "address",
          "name": "spender",
          "type": "address"
        },
        {
          "internalType": "uint256",
          "name": "allowance",
          "type": "uint256"
        },
        {
          "internalType": "uint256",
          "name": "needed",
          "type": "uint256"
        }
      ],
      "name": "ERC20InsufficientAllowance",
      "type": "error"
    },
    {
      "inputs": [
        {
          "internalType": "address",
          "name": "sender",
          "type": "address"
        },
        {
          "internalType": "uint256",
          "name": "balance",
          "type": "uint256"
        },
        {
          "internalType": "uint256",
          "name": "needed",
          "type": "uint256"
        }
      ],
      "name": "ERC20InsufficientBalance",
      "type": "error"
    },
    {
      "inputs": [
        {
          "internalType": "address",
          "name": "approver",
          "type": "address"
        }
      ],
      "name": "ERC20InvalidApprover",
      "type": "error"
    },
    {
      "inputs": [
        {
          "internalType": "address",
          "name": "receiver",
          "type": "address"
        }
      ],
      "name": "ERC20InvalidReceiver",
      "type": "error"
    },
    {
      "inputs": [
        {
          "internalType": "address",
          "name": "sender",
          "type": "address"
        }
      ],
      "name": "ERC20InvalidSender",
      "type": "error"
    },
    {
      "inputs": [
        {
          "internalType": "address",
          "name": "spender",
          "type": "address"
        }
      ],
      "name": "ERC20InvalidSpender",
      "type": "error"
    },
    {
      "anonymous": false,
      "inputs": [
        {
          "indexed": true,
          "internalType": "address",
          "name": "owner",
          "type": "address"
        },
        {
          "indexed": true,
          "internalType": "address",
          "name": "spender",
          "type": "address"
        },
        {
          "indexed": false,
          "internalType": "uint256",
          "name": "value",
          "type": "uint256"
        }
      ],
      "name": "Approval",
      "type": "event"
    },
    {
      "anonymous": false,
      "inputs": [
        {
          "indexed": true,
          "internalType": "address",
          "name": "from",
          "type": "address"
        },
        {
          "indexed": true,
          "internalType": "address",
          "name": "to",
          "type": "address"
        },
        {
          "indexed": false,
          "internalType": "uint256",
          "name": "value",
          "type": "uint256"
        }
      ],
      "name": "Transfer",
      "type": "event"
    },
    {
      "inputs": [],
      "name": "MAX_SUPPLY",
      "outputs": [
        {
          "internalType": "uint256",
          "name": "",
          "type": "uint256"
        }
      ],
      "stateMutability": "view",
      "type": "function"
    },
    {
      "inputs": [
        {
          "internalType": "address",
          "name": "owner",
          "type": "address"
        },
        {
          "internalType": "address",
          "name": "spender",
          "type": "address"
        }
      ],
      "name": "allowance",
      "outputs": [
        {
          "internalType": "uint256",
          "name": "",
          "type": "uint256"
        }
      ],
      "stateMutability": "view",
      "type": "function"
    },
    {
      "inputs": [
        {
          "internalType": "address",
          "name": "spender",
          "type": "address"
        },
        {
          "internalType": "uint256",
          "name": "value",
          "type": "uint256"
        }
      ],
      "name": "approve",
      "outputs": [
        {
          "internalType": "bool",
          "name": "",
          "type": "bool"
        }
      ],
      "stateMutability": "nonpayable",
      "type": "function"
    },
    {
      "inputs": [
        {
          "internalType": "address",
          "name": "account",
          "type": "address"
        }
      ],
      "name": "balanceOf",
      "outputs": [
        {
          "internalType": "uint256",
          "name": "",
          "type": "uint256"
        }
      ],
      "stateMutability": "view",
      "type": "function"
    },
    {
      "inputs": [],
      "name": "decimals",
      "outputs": [
        {
          "internalType": "uint8",
          "name": "",
          "type": "uint8"
        }
      ],
      "stateMutability": "pure",
      "type": "function"
    },
    {
      "inputs": [
        {
          "internalType": "address",
          "name": "to",
          "type": "address"
        },
        {
          "internalType": "uint256",
          "name": "amount",
          "type": "uint256"
        }
      ],
      "name": "mint",
      "outputs": [],
      "stateMutability": "nonpayable",
      "type": "function"
    },
    {
      "inputs": [],
      "name": "name",
      "outputs": [
        {
          "internalType": "string",
          "name": "",
          "type": "string"
        }
      ],
      "stateMutability": "view",
      "type": "function"
    },
    {
      "inputs": [],
      "name": "symbol",
      "outputs": [
        {
          "internalType": "string",
          "name": "",
          "type": "string"
        }
      ],
      "stateMutability": "view",
      "type": "function"
    },
    {
      "inputs": [],
      "name": "totalSupply",
      "outputs": [
        {
          "internalType": "uint256",
          "name": "",
          "type": "uint256"
        }
      ],
      "stateMutability": "view",
      "type": "function"
    },
    {
      "inputs": [
        {
          "internalType": "address",
          "name": "to",
          "type": "address"
        },
        {
          "internalType": "uint256",
          "name": "value",
          "type": "uint256"
        }
      ],
      "name": "transfer",
      "outputs": [
        {
          "internalType": "bool",
          "name": "",
          "type": "bool"
        }
      ],
      "stateMutability": "nonpayable",
      "type": "function"
    },
    {
      "inputs": [
        {
          "internalType": "address",
          "name": "from",
          "type": "address"
        },
        {
          "internalType": "address",
          "name": "to",
          "type": "address"
        },
        {
          "internalType": "uint256",
          "name": "value",
          "type": "uint256"
        }
      ],
      "name": "transferFrom",
      "outputs": [
        {
          "internalType": "bool",
          "name": "",
          "type": "bool"
        }
      ],
      "stateMutability": "nonpayable",
      "type": "function"
    }
  ],
  "bytecode": "0x6080346200040957601f62000c2c38819003828101601f199081168501946001600160401b039490939092858711858810176200040e5780859260409889528339602094859181010312620004095751936200005a62000424565b60088152672aa9a21021b7b4b760c11b858201526200007862000424565b90600494858352635553444360e01b878401528151928484116200030d576003938454936001948581811c91168015620003fe575b8b821014620003e95790818584931162000393575b508a908583116001146200032e5760009262000322575b505060001982871b1c191690841b1784555b80519485116200030d5786548381811c9116801562000302575b89821014620002ed57828111620002a2575b50879185116001146200023957849550908492916000956200022d575b50501b92600019911b1c19161781555b6509184e72a0008311620001e2573315620001cb5760025490838201809211620001b657506000917fddf252ad1be2c89b69c2b068fc378daa952ba7f163c4a11628f55a4df523b3ef9160025533835282815284832084815401905584519384523393a3516107e79081620004458239f35b601190634e487b7160e01b6000525260246000fd5b602490600085519163ec442f0560e01b8352820152fd5b60849184519162461bcd60e51b8352820152602160248201527f496e697469616c20737570706c792065786365656473206d617820737570706c6044820152607960f81b6064820152fd5b01519350388062000134565b9291948416928660005284886000209460005b8a898383106200028a57505050106200026f575b50505050811b01815562000144565b01519060f884600019921b161c191690553880808062000260565b8686015189559097019694850194889350016200024c565b87600052886000208380880160051c8201928b8910620002e3575b0160051c019084905b828110620002d657505062000117565b60008155018490620002c6565b92508192620002bd565b602288634e487b7160e01b6000525260246000fd5b90607f169062000105565b604187634e487b7160e01b6000525260246000fd5b015190503880620000d9565b908987941691886000528c600020928d6000905b8282106200037b575050841162000362575b505050811b018455620000eb565b015160001983891b60f8161c1916905538808062000354565b8385015186558a979095019493840193018e62000342565b909150866000528a6000208580850160051c8201928d8610620003df575b918891869594930160051c01915b828110620003cf575050620000c2565b60008155859450889101620003bf565b92508192620003b1565b60228a634e487b7160e01b6000525260246000fd5b90607f1690620000ad565b600080fd5b634e487b7160e01b600052604160045260246000fd5b60408051919082016001600160401b038111838210176200040e5760405256fe608060408181526004918236101561001657600080fd5b600092833560e01c91826306fdde031461055e57508163095ea7b3146104b457816318160ddd1461049557816323b872dd1461039e578163313ce5671461038257816332cb6b0c1461036157816340c10f191461026f57816370a082311461023857816395d89b411461011957508063a9059cbb146100e95763dd62ed3e1461009e57600080fd5b346100e557806003193601126100e557806020926100ba61067f565b6100c261069a565b6001600160a01b0391821683526001865283832091168252845220549051908152f35b5080fd5b50346100e557806003193601126100e55760209061011261010861067f565b60243590336106b0565b5160018152f35b8383346100e557816003193601126100e557805190828454600181811c9080831692831561022e575b602093848410811461021b578388529081156101ff57506001146101aa575b505050829003601f01601f191682019267ffffffffffffffff8411838510176101975750829182610193925282610636565b0390f35b634e487b7160e01b815260418552602490fd5b8787529192508591837f8a35acfbc15ff81a39ae7d344fd709f28e8600b4aa8c65c6b64bfe7fe36bd19b5b8385106101eb5750505050830101858080610161565b8054888601830152930192849082016101d5565b60ff1916878501525050151560051b8401019050858080610161565b634e487b7160e01b895260228a52602489fd5b91607f1691610142565b5050346100e55760203660031901126100e55760209181906001600160a01b0361026061067f565b16815280845220549051908152f35b9190503461035d578060031936011261035d5761028a61067f565b60025460243592916509184e72a0006102a3858461078e565b1161031a576001600160a01b03169384156103035750827fddf252ad1be2c89b69c2b068fc378daa952ba7f163c4a11628f55a4df523b3ef926102e9879560209461078e565b60025585855284835280852082815401905551908152a380f35b825163ec442f0560e01b8152908101869052602490fd5b825162461bcd60e51b8152602081870152601a60248201527f4d696e74696e672065786365656473206d617820737570706c790000000000006044820152606490fd5b8280fd5b5050346100e557816003193601126100e557602090516509184e72a0008152f35b5050346100e557816003193601126100e5576020905160068152f35b90508234610492576060366003190112610492576103ba61067f565b6103c261069a565b916044359360018060a01b0383168083526001602052868320338452602052868320549160001983106103fe575b6020886101128989896106b0565b86831061046657811561044f57331561043857508252600160209081528683203384528152918690209085900390558290610112876103f0565b8751634a1406b160e11b8152908101849052602490fd5b875163e602df0560e01b8152908101849052602490fd5b8751637dc7a0d960e11b8152339181019182526020820193909352604081018790528291506060010390fd5b80fd5b5050346100e557816003193601126100e5576020906002549051908152f35b90503461035d578160031936011261035d576104ce61067f565b602435903315610547576001600160a01b031691821561053057508083602095338152600187528181208582528752205582519081527f8c5be1e5ebec7d5bd14f71427d1e84f3dd0314c0f7b2291e5b200ac8c7c3b925843392a35160018152f35b8351634a1406b160e11b8152908101859052602490fd5b835163e602df0560e01b8152808401869052602490fd5b8490843461035d578260031936011261035d5782600354600181811c9080831692831561062c575b602093848410811461021b578388529081156101ff57506001146105d657505050829003601f01601f191682019267ffffffffffffffff8411838510176101975750829182610193925282610636565b600387529192508591837fc2575a0e9e593c00f959f8c92f12db2869c3395a3b0502d05e2516446f71f85b5b8385106106185750505050830101858080610161565b805488860183015293019284908201610602565b91607f1691610586565b6020808252825181830181905290939260005b82811061066b57505060409293506000838284010152601f8019910116010190565b818101860151848201604001528501610649565b600435906001600160a01b038216820361069557565b600080fd5b602435906001600160a01b038216820361069557565b916001600160a01b03808416928315610775571692831561075c576000908382528160205260408220549083821061072a575091604082827fddf252ad1be2c89b69c2b068fc378daa952ba7f163c4a11628f55a4df523b3ef958760209652828652038282205586815220818154019055604051908152a3565b60405163391434e360e21b81526001600160a01b03919091166004820152602481019190915260448101839052606490fd5b60405163ec442f0560e01b815260006004820152602490fd5b604051634b637e8f60e11b815260006004820152602490fd5b9190820180921161079b57565b634e487b7160e01b600052601160045260246000fdfea2646970667358221220e1fb49f43aa04870e2bb17748415ab4ce50ef489e578f61b42ba90b4f6b550f864736f6c63430008140033",
  "linkReferences": {},
  "deployedLinkReferences": {}
}