{
  "_format": "hh-sol-artifact-1",
  "contractName": "ResearchPaperNFT",
  "sourceName": "contracts/ResearchPaperNFT.sol",
  "abi": [
    {
      "inputs": [],
      "stateMutability": "nonpayable",
      "type": "constructor"
    },
    {
      "inputs": [
        {
          "internalType": "uint256",
          "name": "numerator",
          "type": "uint256"
        },
        {
          "internalType": "uint256",
          "name": "denominator",
          "type": "uint256"
        }
      ],
      "name": "ERC2981InvalidDefaultRoyalty",
      "type": "error"
    },
    {
      "inputs": [
        {
          "internalType": "address",
          "name": "receiver",
          "type": "address"
        }
      ],
      "name": "ERC2981InvalidDefaultRoyaltyReceiver",
      "type": "error"
    },
    {
      "inputs": [
        {
          "internalType": "uint256",
          "name": "tokenId",
          "type": "uint256"
        },
        {
          "internalType": "uint256",
          "name": "numerator",
          "type": "uint256"
        },
        {
          "internalType": "uint256",
          "name": "denominator",
          "type": "uint256"
        }
      ],
      "name": "ERC2981InvalidTokenRoyalty",
      "type": "error"
    },
    {
      "inputs": [
        {
          "internalType": "uint256",
          "name": "tokenId",
          "type": "uint256"
        },
        {
          "internalType": "address",
          "name": "receiver",
          "type": "address"
        }
      ],
      "name": "ERC2981InvalidTokenRoyaltyReceiver",
      "type": "error"
    },
    {
      "inputs": [
        {
          "internalType": "address",
          "name": "sender",
          "type": "address"
        },
        {
          "internalType": "uint256",
          "name": "tokenId",
          "type": "uint256"
        },
        {
          "internalType": "address",
          "name": "owner",
          "type": "address"
        }
      ],
      "name": "ERC721IncorrectOwner",
      "type": "error"
    },
    {
      "inputs": [
        {
          "internalType": "address",
          "name": "operator",
          "type": "address"
        },
        {
          "internalType": "uint256",
          "name": "tokenId",
          "type": "uint256"
        }
      ],
      "name": "ERC721InsufficientApproval",
      "type": "error"
    },
    {
      "inputs": [
        {
          "internalType": "address",
          "name": "approver",
          "type": "address"
        }
      ],
      "name": "ERC721InvalidApprover",
      "type": "error"
    },
    {
      "inputs": [
        {
          "internalType": "address",
          "name": "operator",
          "type": "address"
        }
      ],
      "name": "ERC721InvalidOperator",
      "type": "error"
    },
    {
      "inputs": [
        {
          "internalType": "address",
          "name": "owner",
          "type": "address"
        }
      ],
      "name": "ERC721InvalidOwner",
      "type": "error"
    },
    {
      "inputs": [
        {
          "internalType": "address",
          "name": "receiver",
          "type": "address"
        }
      ],
      "name": "ERC721InvalidReceiver",
      "type": "error"
    },
    {
      "inputs": [
        {
          "internalType": "address",
          "name": "sender",
          "type": "address"
        }
      ],
      "name": "ERC721InvalidSender",
      "type": "error"
    },
    {
      "inputs": [
        {
          "internalType": "uint256",
          "name": "tokenId",
          "type": "uint256"
        }
      ],
      "name": "ERC721NonexistentToken",
      "type": "error"
    },
    {
      "inputs": [
        {
          "internalType": "address",
          "name": "owner",
          "type": "address"
        }
      ],
      "name": "OwnableInvalidOwner",
      "type": "error"
    },
    {
      "inputs": [
        {
          "internalType": "address",
          "name": "account",
          "type": "address"
        }
      ],
      "name": "OwnableUnauthorizedAccount",
      "type": "error"
    },
    {
      "anonymous": false,
      "inputs": [
        {
          "indexed": true,
          "internalType": "address",
          "name": "owner",
          "type": "address"
        },
        {
          "indexed": true,
          "internalType": "address",
          "name": "approved",
          "type": "address"
        },
        {
          "indexed": true,
          "internalType": "uint256",
          "name": "tokenId",
          "type": "uint256"
        }
      ],
      "name": "Approval",
      "type": "event"
    },
    {
      "anonymous": false,
      "inputs": [
        {
          "indexed": true,
          "internalType": "address",
          "name": "owner",
          "type": "address"
        },
        {
          "indexed": true,
          "internalType": "address",
          "name": "operator",
          "type": "address"
        },
        {
          "indexed": false,
          "internalType": "bool",
          "name": "approved",
          "type": "bool"
        }
      ],
      "name": "ApprovalForAll",
      "type": "event"
    },
    {
      "anonymous": false,
      "inputs": [
        {
          "indexed": false,
          "internalType": "uint256",
          "name": "_fromTokenId",
          "type": "uint256"
        },
        {
          "indexed": false,
          "internalType": "uint256",
          "name": "_toTokenId",
          "type": "uint256"
        }
      ],
      "name": "BatchMetadataUpdate",
      "type": "event"
    },
    {
      "anonymous": false,
      "inputs": [
        {
          "indexed": false,
          "internalType": "uint256",
          "name": "_tokenId",
          "type": "uint256"
        }
      ],
      "name": "MetadataUpdate",
      "type": "event"
    },
    {
      "anonymous": false,
      "inputs": [
        {
          "indexed": true,
          "internalType": "address",
          "name": "previousOwner",
          "type": "address"
        },
        {
          "indexed": true,
          "internalType": "address",
          "name": "newOwner",
          "type": "address"
        }
      ],
      "name": "OwnershipTransferred",
      "type": "event"
    },
    {
      "anonymous": false,
      "inputs": [
        {
          "indexed": true,
          "internalType": "uint256",
          "name": "tokenId",
          "type": "uint256"
        },
        {
          "indexed": true,
          "internalType": "address",
          "name": "author",
          "type": "address"
        },
        {
          "indexed": false,
          "internalType": "string",
          "name": "ipfsHash",
          "type": "string"
        },
        {
          "indexed": false,
          "internalType": "string",
          "name": "title",
          "type": "string"
        }
      ],
      "name": "PaperMinted",
      "type": "event"
    },
    {
      "anonymous": false,
      "inputs": [
        {
          "indexed": true,
          "internalType": "uint256",
          "name": "tokenId",
          "type": "uint256"
        },
        {
          "indexed": false,
          "internalType": "enum ResearchPaperNFT.Status",
          "name": "newStatus",
          "type": "uint8"
        }
      ],
      "name": "StatusUpdated",
      "type": "event"
    },
    {
      "anonymous": false,
      "inputs": [
        {
          "indexed": true,
          "internalType": "address",
          "name": "from",
          "type": "address"
        },
        {
          "indexed": true,
          "internalType": "address",
          "name": "to",
          "type": "address"
        },
        {
          "indexed": true,
          "internalType": "uint256",
          "name": "tokenId",
          "type": "uint256"
        }
      ],
      "name": "Transfer",
      "type": "event"
    },
    {
      "inputs": [
        {
          "internalType": "address",
          "name": "to",
          "type": "address"
        },
        {
          "internalType": "uint256",
          "name": "tokenId",
          "type": "uint256"
        }
      ],
      "name": "approve",
      "outputs": [],
      "stateMutability": "nonpayable",
      "type": "function"
    },
    {
      "inputs": [
        {
          "internalType": "address",
          "name": "owner",
          "type": "address"
        }
      ],
      "name": "balanceOf",
      "outputs": [
        {
          "internalType": "uint256",
          "name": "",
          "type": "uint256"
        }
      ],
      "stateMutability": "view",
      "type": "function"
    },
    {
      "inputs": [
        {
          "internalType": "uint256",
          "name": "tokenId",
          "type": "uint256"
        }
      ],
      "name": "getApproved",
      "outputs": [
        {
          "internalType": "address",
          "name": "",
          "type": "address"
        }
      ],
      "stateMutability": "view",
      "type": "function"
    },
    {
      "inputs": [
        {
          "internalType": "uint256",
          "name": "tokenId",
          "type": "uint256"
        }
      ],
      "name": "getPaperMetadata",
      "outputs": [
        {
          "internalType": "string",
          "name": "title",
          "type": "string"
        },
        {
          "internalType": "string",
          "name": "author",
          "type": "string"
        },
        {
          "internalType": "string",
          "name": "affiliation",
          "type": "string"
        },
        {
          "internalType": "string",
          "name": "ipfsHash",
          "type": "string"
        },
        {
          "internalType": "enum ResearchPaperNFT.Status",
          "name": "status",
          "type": "uint8"
        },
        {
          "internalType": "uint256",
          "name": "mintedAt",
          "type": "uint256"
        }
      ],
      "stateMutability": "view",
      "type": "function"
    },
    {
      "inputs": [
        {
          "internalType": "address",
          "name": "owner",
          "type": "address"
        },
        {
          "internalType": "address",
          "name": "operator",
          "type": "address"
        }
      ],
      "name": "isApprovedForAll",
      "outputs": [
        {
          "internalType": "bool",
          "name": "",
          "type": "bool"
        }
      ],
      "stateMutability": "view",
      "type": "function"
    },
    {
      "inputs": [
        {
          "internalType": "address",
          "name": "to",
          "type": "address"
        },
        {
          "internalType": "string",
          "name": "ipfsHash",
          "type": "string"
        },
        {
          "internalType": "string",
          "name": "title",
          "type": "string"
        },
        {
          "internalType": "string",
          "name": "author",
          "type": "string"
        },
        {
          "internalType": "string",
          "name": "affiliation",
          "type": "string"
        }
      ],
      "name": "mintPaper",
      "outputs": [
        {
          "internalType": "uint256",
          "name": "",
          "type": "uint256"
        }
      ],
      "stateMutability": "nonpayable",
      "type": "function"
    },
    {
      "inputs": [],
      "name": "name",
      "outputs": [
        {
          "internalType": "string",
          "name": "",
          "type": "string"
        }
      ],
      "stateMutability": "view",
      "type": "function"
    },
    {
      "inputs": [],
      "name": "owner",
      "outputs": [
        {
          "internalType": "address",
          "name": "",
          "type": "address"
        }
      ],
      "stateMutability": "view",
      "type": "function"
    },
    {
      "inputs": [
        {
          "internalType": "uint256",
          "name": "tokenId",
          "type": "uint256"
        }
      ],
      "name": "ownerOf",
      "outputs": [
        {
          "internalType": "address",
          "name": "",
          "type": "address"
        }
      ],
      "stateMutability": "view",
      "type": "function"
    },
    {
      "inputs": [
        {
          "internalType": "uint256",
          "name": "",
          "type": "uint256"
        }
      ],
      "name": "papers",
      "outputs": [
        {
          "internalType": "string",
          "name": "title",
          "type": "string"
        },
        {
          "internalType": "string",
          "name": "author",
          "type": "string"
        },
        {
          "internalType": "string",
          "name": "affiliation",
          "type": "string"
        },
        {
          "internalType": "string",
          "name": "ipfsHash",
          "type": "string"
        },
        {
          "internalType": "enum ResearchPaperNFT.Status",
          "name": "status",
          "type": "uint8"
        },
        {
          "internalType": "uint256",
          "name": "mintedAt",
          "type": "uint256"
        }
      ],
      "stateMutability": "view",
      "type": "function"
    },
    {
      "inputs": [],
      "name": "renounceOwnership",
      "outputs": [],
      "stateMutability": "nonpayable",
      "type": "function"
    },
    {
      "inputs": [
        {
          "internalType": "uint256",
          "name": "tokenId",
          "type": "uint256"
        },
        {
          "internalType": "uint256",
          "name": "salePrice",
          "type": "uint256"
        }
      ],
      "name": "royaltyInfo",
      "outputs": [
        {
          "internalType": "address",
          "name": "receiver",
          "type": "address"
        },
        {
          "internalType": "uint256",
          "name": "amount",
          "type": "uint256"
        }
      ],
      "stateMutability": "view",
      "type": "function"
    },
    {
      "inputs": [
        {
          "internalType": "address",
          "name": "from",
          "type": "address"
        },
        {
          "internalType": "address",
          "name": "to",
          "type": "address"
        },
        {
          "internalType": "uint256",
          "name": "tokenId",
          "type": "uint256"
        }
      ],
      "name": "safeTransferFrom",
      "outputs": [],
      "stateMutability": "nonpayable",
      "type": "function"
    },
    {
      "inputs": [
        {
          "internalType": "address",
          "name": "from",
          "type": "address"
        },
        {
          "internalType": "address",
          "name": "to",
          "type": "address"
        },
        {
          "internalType": "uint256",
          "name": "tokenId",
          "type": "uint256"
        },
        {
          "internalType": "bytes",
          "name": "data",
          "type": "bytes"
        }
      ],
      "name": "safeTransferFrom",
      "outputs": [],
      "stateMutability": "nonpayable",
      "type": "function"
    },
    {
      "inputs": [
        {
          "internalType": "address",
          "name": "operator",
          "type": "address"
        },
        {
          "internalType": "bool",
          "name": "approved",
          "type": "bool"
        }
      ],
      "name": "setApprovalForAll",
      "outputs": [],
      "stateMutability": "nonpayable",
      "type": "function"
    },
    {
      "inputs": [
        {
          "internalType": "address",
          "name": "receiver",
          "type": "address"
        },
        {
          "internalType": "uint96",
          "name": "feeNumerator",
          "type": "uint96"
        }
      ],
      "name": "setRoyalty",
      "outputs": [],
      "stateMutability": "nonpayable",
      "type": "function"
    },
    {
      "inputs": [
        {
          "internalType": "bytes4",
          "name": "interfaceId",
          "type": "bytes4"
        }
      ],
      "name": "supportsInterface",
      "outputs": [
        {
          "internalType": "bool",
          "name": "",
          "type": "bool"
        }
      ],
      "stateMutability": "view",
      "type": "function"
    },
    {
      "inputs": [],
      "name": "symbol",
      "outputs": [
        {
          "internalType": "string",
          "name": "",
          "type": "string"
        }
      ],
      "stateMutability": "view",
      "type": "function"
    },
    {
      "inputs": [
        {
          "internalType": "uint256",
          "name": "tokenId",
          "type": "uint256"
        }
      ],
      "name": "tokenURI",
      "outputs": [
        {
          "internalType": "string",
          "name": "",
          "type": "string"
        }
      ],
      "stateMutability": "view",
      "type": "function"
    },
    {
      "inputs": [],
      "name": "totalSupply",
      "outputs": [
        {
          "internalType": "uint256",
          "name": "",
          "type": "uint256"
        }
      ],
      "stateMutability": "view",
      "type": "function"
    },
    {
      "inputs": [
        {
          "internalType": "address",
          "name": "from",
          "type": "address"
        },
        {
          "internalType": "address",
          "name": "to",
          "type": "address"
        },
        {
          "internalType": "uint256",
          "name": "tokenId",
          "type": "uint256"
        }
      ],
      "name": "transferFrom",
      "outputs": [],
      "stateMutability": "nonpayable",
      "type": "function"
    },
    {
      "inputs": [
        {
          "internalType": "address",
          "name": "newOwner",
          "type": "address"
        }
      ],
      "name": "transferOwnership",
      "outputs": [],
      "stateMutability": "nonpayable",
      "type": "function"
    },
    {
      "inputs": [
        {
          "internalType": "uint256",
          "name": "tokenId",
          "type": "uint256"
        },
        {
          "internalType": "enum ResearchPaperNFT.Status",
          "name": "newStatus",
          "type": "uint8"
        }
      ],
      "name": "updateStatus",
      "outputs": [],
      "stateMutability": "nonpayable",
      "type": "function"
    }
  ],
  "bytecode": "0x60806040523480156200001157600080fd5b50336040518060400160405280601581526020017f4a55444f4c2052657365617263682050617065727300000000000000000000008152506040518060400160405280600581526020016412955113d360da1b815250816000908162000078919062000278565b50600162000087828262000278565b5050506001600160a01b038116620000ba57604051631e4fbdf760e01b8152600060048201526024015b60405180910390fd5b620000c581620000da565b50620000d4336101f46200012c565b62000344565b600980546001600160a01b038381166001600160a01b0319831681179093556040519116919082907f8be0079c531659141344cd1fd0a4f28419497f9722a3daafe3b4186f6b6457e090600090a35050565b6127106001600160601b0382168110156200016d57604051636f483d0960e01b81526001600160601b038316600482015260248101829052604401620000b1565b6001600160a01b0383166200019957604051635b6cc80560e11b815260006004820152602401620000b1565b50604080518082019091526001600160a01b039092168083526001600160601b039091166020909201829052600160a01b90910217600755565b634e487b7160e01b600052604160045260246000fd5b600181811c90821680620001fe57607f821691505b6020821081036200021f57634e487b7160e01b600052602260045260246000fd5b50919050565b601f8211156200027357600081815260208120601f850160051c810160208610156200024e5750805b601f850160051c820191505b818110156200026f578281556001016200025a565b5050505b505050565b81516001600160401b03811115620002945762000294620001d3565b620002ac81620002a58454620001e9565b8462000225565b602080601f831160018114620002e45760008415620002cb5750858301515b600019600386901b1c1916600185901b1785556200026f565b600085815260208120601f198616915b828110156200031557888601518255948401946001909101908401620002f4565b5085821015620003345787850151600019600388901b60f8161c191681555b5050505050600190811b01905550565b611f5380620003546000396000f3fe608060405234801561001057600080fd5b506004361061014d5760003560e01c80636352211e116100c357806395d89b411161007c57806395d89b41146102e9578063a22cb465146102f1578063b88d4fde14610304578063c87b56dd14610317578063e985e9c51461032a578063f2fde38b1461033d57600080fd5b80636352211e1461028457806370a082311461029757806371279067146102aa578063715018a6146102bd5780638da5cb5b146102c55780638f2fc60b146102d657600080fd5b806323b872dd1161011557806323b872dd146101e15780632a55205a146101f45780633a1b3d31146102265780633e712fd21461023957806342842e0e1461025e5780635e775a271461027157600080fd5b806301ffc9a71461015257806306fdde031461017a578063081812fc1461018f578063095ea7b3146101ba57806318160ddd146101cf575b600080fd5b6101656101603660046117fc565b610350565b60405190151581526020015b60405180910390f35b610182610361565b6040516101719190611869565b6101a261019d36600461187c565b6103f3565b6040516001600160a01b039091168152602001610171565b6101cd6101c83660046118b1565b61041c565b005b600a545b604051908152602001610171565b6101cd6101ef3660046118db565b61042b565b610207610202366004611917565b6104bb565b604080516001600160a01b039093168352602083019190915201610171565b6101cd610234366004611939565b610540565b61024c61024736600461187c565b6105b7565b604051610171969594939291906119a5565b6101cd61026c3660046118db565b610896565b61024c61027f36600461187c565b6108b6565b6101a261029236600461187c565b610b0e565b6101d36102a5366004611a13565b610b19565b6101d36102b8366004611ada565b610b61565b6101cd610cad565b6009546001600160a01b03166101a2565b6101cd6102e4366004611b98565b610cc1565b610182610cd3565b6101cd6102ff366004611bd0565b610ce2565b6101cd610312366004611c01565b610ced565b61018261032536600461187c565b610d05565b610165610338366004611c7d565b610d10565b6101cd61034b366004611a13565b610d3e565b600061035b82610d7c565b92915050565b60606000805461037090611cb0565b80601f016020809104026020016040519081016040528092919081815260200182805461039c90611cb0565b80156103e95780601f106103be576101008083540402835291602001916103e9565b820191906000526020600020905b8154815290600101906020018083116103cc57829003601f168201915b5050505050905090565b60006103fe82610da1565b506000828152600460205260409020546001600160a01b031661035b565b610427828233610dda565b5050565b6001600160a01b03821661045a57604051633250574960e11b8152600060048201526024015b60405180910390fd5b6000610467838333610de7565b9050836001600160a01b0316816001600160a01b0316146104b5576040516364283d7b60e01b81526001600160a01b0380861660048301526024820184905282166044820152606401610451565b50505050565b600082815260086020526040812080548291906001600160a01b03811690600160a01b90046001600160601b03168161050f5750506007546001600160a01b03811690600160a01b90046001600160601b03165b60006127106105276001600160601b03841689611d00565b6105319190611d17565b92989297509195505050505050565b610548610ee0565b6000828152600b60205260409020600401805482919060ff191660018360038111156105765761057661196d565b0217905550817f2da7b23ca63c1eb969eee5fae4acb98186abecf5358b0354a82a5183ebca6b2a826040516105ab9190611d39565b60405180910390a25050565b6060806060806000806000600b60008981526020019081526020016000206040518060c00160405290816000820180546105f090611cb0565b80601f016020809104026020016040519081016040528092919081815260200182805461061c90611cb0565b80156106695780601f1061063e57610100808354040283529160200191610669565b820191906000526020600020905b81548152906001019060200180831161064c57829003601f168201915b5050505050815260200160018201805461068290611cb0565b80601f01602080910402602001604051908101604052809291908181526020018280546106ae90611cb0565b80156106fb5780601f106106d0576101008083540402835291602001916106fb565b820191906000526020600020905b8154815290600101906020018083116106de57829003601f168201915b5050505050815260200160028201805461071490611cb0565b80601f016020809104026020016040519081016040528092919081815260200182805461074090611cb0565b801561078d5780601f106107625761010080835404028352916020019161078d565b820191906000526020600020905b81548152906001019060200180831161077057829003601f168201915b505050505081526020016003820180546107a690611cb0565b80601f01602080910402602001604051908101604052809291908181526020018280546107d290611cb0565b801561081f5780601f106107f45761010080835404028352916020019161081f565b820191906000526020600020905b81548152906001019060200180831161080257829003601f168201915b5050509183525050600482015460209091019060ff1660038111156108465761084661196d565b60038111156108575761085761196d565b81526005919091015460209182015281519082015160408301516060840151608085015160a090950151939d929c50909a509850919650945092505050565b6108b183838360405180602001604052806000815250610ced565b505050565b600b602052600090815260409020805481906108d190611cb0565b80601f01602080910402602001604051908101604052809291908181526020018280546108fd90611cb0565b801561094a5780601f1061091f5761010080835404028352916020019161094a565b820191906000526020600020905b81548152906001019060200180831161092d57829003601f168201915b50505050509080600101805461095f90611cb0565b80601f016020809104026020016040519081016040528092919081815260200182805461098b90611cb0565b80156109d85780601f106109ad576101008083540402835291602001916109d8565b820191906000526020600020905b8154815290600101906020018083116109bb57829003601f168201915b5050505050908060020180546109ed90611cb0565b80601f0160208091040260200160405190810160405280929190818152602001828054610a1990611cb0565b8015610a665780601f10610a3b57610100808354040283529160200191610a66565b820191906000526020600020905b815481529060010190602001808311610a4957829003601f168201915b505050505090806003018054610a7b90611cb0565b80601f0160208091040260200160405190810160405280929190818152602001828054610aa790611cb0565b8015610af45780601f10610ac957610100808354040283529160200191610af4565b820191906000526020600020905b815481529060010190602001808311610ad757829003601f168201915b505050506004830154600590930154919260ff1691905086565b600061035b82610da1565b60006001600160a01b038216610b45576040516322718ad960e21b815260006004820152602401610451565b506001600160a01b031660009081526003602052604090205490565b600a805460009182919082610b7583611d47565b919050559050610b858782610f0d565b610b8f8187610f27565b6040518060c0016040528086815260200185815260200184815260200187815260200160006003811115610bc557610bc561196d565b8152426020918201526000838152600b9091526040902081518190610bea9082611da6565b5060208201516001820190610bff9082611da6565b5060408201516002820190610c149082611da6565b5060608201516003820190610c299082611da6565b50608082015160048201805460ff19166001836003811115610c4d57610c4d61196d565b021790555060a08201518160050155905050866001600160a01b0316817fb559b7a8c93eea8da54a33d427e0f37fc50f8daf28a1f0c04a7e0121e16eba4d8888604051610c9b929190611e66565b60405180910390a39695505050505050565b610cb5610ee0565b610cbf6000610f77565b565b610cc9610ee0565b6104278282610fc9565b60606001805461037090611cb0565b61042733838361106c565b610cf884848461042b565b6104b5338585858561110b565b606061035b82611236565b6001600160a01b03918216600090815260056020908152604080832093909416825291909152205460ff1690565b610d46610ee0565b6001600160a01b038116610d7057604051631e4fbdf760e01b815260006004820152602401610451565b610d7981610f77565b50565b60006001600160e01b0319821663152a902d60e11b148061035b575061035b82611347565b6000818152600260205260408120546001600160a01b03168061035b57604051637e27328960e01b815260048101849052602401610451565b6108b1838383600161136c565b6000828152600260205260408120546001600160a01b0390811690831615610e1457610e14818486611472565b6001600160a01b03811615610e5257610e3160008560008061136c565b6001600160a01b038116600090815260036020526040902080546000190190555b6001600160a01b03851615610e81576001600160a01b0385166000908152600360205260409020805460010190555b60008481526002602052604080822080546001600160a01b0319166001600160a01b0389811691821790925591518793918516917fddf252ad1be2c89b69c2b068fc378daa952ba7f163c4a11628f55a4df523b3ef91a4949350505050565b6009546001600160a01b03163314610cbf5760405163118cdaa760e01b8152336004820152602401610451565b6104278282604051806020016040528060008152506114d6565b6000828152600660205260409020610f3f8282611da6565b506040518281527ff8e1a15aba9398e019f0b49df1a4fde98ee17ae345cb5f6b5e2c27f5033e8ce79060200160405180910390a15050565b600980546001600160a01b038381166001600160a01b0319831681179093556040519116919082907f8be0079c531659141344cd1fd0a4f28419497f9722a3daafe3b4186f6b6457e090600090a35050565b6127106001600160601b03821681101561100857604051636f483d0960e01b81526001600160601b038316600482015260248101829052604401610451565b6001600160a01b03831661103257604051635b6cc80560e11b815260006004820152602401610451565b50604080518082019091526001600160a01b039092168083526001600160601b039091166020909201829052600160a01b90910217600755565b6001600160a01b03821661109e57604051630b61174360e31b81526001600160a01b0383166004820152602401610451565b6001600160a01b03838116600081815260056020908152604080832094871680845294825291829020805460ff191686151590811790915591519182527f17307eab39ab6107e8899845ad3d59bd9653f200f220920489ca2b5937696c31910160405180910390a3505050565b6001600160a01b0383163b1561122f57604051630a85bd0160e11b81526001600160a01b0384169063150b7a029061114d908890889087908790600401611e94565b6020604051808303816000875af1925050508015611188575060408051601f3d908101601f1916820190925261118591810190611ed1565b60015b6111f1573d8080156111b6576040519150601f19603f3d011682016040523d82523d6000602084013e6111bb565b606091505b5080516000036111e957604051633250574960e11b81526001600160a01b0385166004820152602401610451565b805160208201fd5b6001600160e01b03198116630a85bd0160e11b1461122d57604051633250574960e11b81526001600160a01b0385166004820152602401610451565b505b5050505050565b606061124182610da1565b506000828152600660205260408120805461125b90611cb0565b80601f016020809104026020016040519081016040528092919081815260200182805461128790611cb0565b80156112d45780601f106112a9576101008083540402835291602001916112d4565b820191906000526020600020905b8154815290600101906020018083116112b757829003601f168201915b5050505050905060006112f260408051602081019091526000815290565b90508051600003611304575092915050565b81511561133657808260405160200161131e929190611eee565b60405160208183030381529060405292505050919050565b61133f846114ee565b949350505050565b60006001600160e01b03198216632483248360e11b148061035b575061035b82611563565b808061138057506001600160a01b03821615155b1561144257600061139084610da1565b90506001600160a01b038316158015906113bc5750826001600160a01b0316816001600160a01b031614155b80156113cf57506113cd8184610d10565b155b156113f85760405163a9fbf51f60e01b81526001600160a01b0384166004820152602401610451565b81156114405783856001600160a01b0316826001600160a01b03167f8c5be1e5ebec7d5bd14f71427d1e84f3dd0314c0f7b2291e5b200ac8c7c3b92560405160405180910390a45b505b5050600090815260046020526040902080546001600160a01b0319166001600160a01b0392909216919091179055565b61147d8383836115b3565b6108b1576001600160a01b0383166114ab57604051637e27328960e01b815260048101829052602401610451565b60405163177e802f60e01b81526001600160a01b038316600482015260248101829052604401610451565b6114e08383611616565b6108b133600085858561110b565b60606114f982610da1565b50600061151160408051602081019091526000815290565b90506000815111611531576040518060200160405280600081525061155c565b8061153b8461167b565b60405160200161154c929190611eee565b6040516020818303038152906040525b9392505050565b60006001600160e01b031982166380ac58cd60e01b148061159457506001600160e01b03198216635b5e139f60e01b145b8061035b57506301ffc9a760e01b6001600160e01b031983161461035b565b60006001600160a01b0383161580159061133f5750826001600160a01b0316846001600160a01b031614806115ed57506115ed8484610d10565b8061133f5750506000908152600460205260409020546001600160a01b03908116911614919050565b6001600160a01b03821661164057604051633250574960e11b815260006004820152602401610451565b600061164e83836000610de7565b90506001600160a01b038116156108b1576040516339e3563760e11b815260006004820152602401610451565b606060006116888361170e565b600101905060008167ffffffffffffffff8111156116a8576116a8611a2e565b6040519080825280601f01601f1916602001820160405280156116d2576020820181803683370190505b5090508181016020015b600019016f181899199a1a9b1b9c1cb0b131b232b360811b600a86061a8153600a85049450846116dc57509392505050565b60008072184f03e93ff9f4daa797ed6e38ed64bf6a1f0160401b831061174d5772184f03e93ff9f4daa797ed6e38ed64bf6a1f0160401b830492506040015b6d04ee2d6d415b85acef81000000008310611779576d04ee2d6d415b85acef8100000000830492506020015b662386f26fc10000831061179757662386f26fc10000830492506010015b6305f5e10083106117af576305f5e100830492506008015b61271083106117c357612710830492506004015b606483106117d5576064830492506002015b600a831061035b5760010192915050565b6001600160e01b031981168114610d7957600080fd5b60006020828403121561180e57600080fd5b813561155c816117e6565b60005b8381101561183457818101518382015260200161181c565b50506000910152565b60008151808452611855816020860160208601611819565b601f01601f19169290920160200192915050565b60208152600061155c602083018461183d565b60006020828403121561188e57600080fd5b5035919050565b80356001600160a01b03811681146118ac57600080fd5b919050565b600080604083850312156118c457600080fd5b6118cd83611895565b946020939093013593505050565b6000806000606084860312156118f057600080fd5b6118f984611895565b925061190760208501611895565b9150604084013590509250925092565b6000806040838503121561192a57600080fd5b50508035926020909101359150565b6000806040838503121561194c57600080fd5b8235915060208301356004811061196257600080fd5b809150509250929050565b634e487b7160e01b600052602160045260246000fd5b600481106119a157634e487b7160e01b600052602160045260246000fd5b9052565b60c0815260006119b860c083018961183d565b82810360208401526119ca818961183d565b905082810360408401526119de818861183d565b905082810360608401526119f2818761183d565b915050611a026080830185611983565b8260a0830152979650505050505050565b600060208284031215611a2557600080fd5b61155c82611895565b634e487b7160e01b600052604160045260246000fd5b600067ffffffffffffffff80841115611a5f57611a5f611a2e565b604051601f8501601f19908116603f01168101908282118183101715611a8757611a87611a2e565b81604052809350858152868686011115611aa057600080fd5b858560208301376000602087830101525050509392505050565b600082601f830112611acb57600080fd5b61155c83833560208501611a44565b600080600080600060a08688031215611af257600080fd5b611afb86611895565b9450602086013567ffffffffffffffff80821115611b1857600080fd5b611b2489838a01611aba565b95506040880135915080821115611b3a57600080fd5b611b4689838a01611aba565b94506060880135915080821115611b5c57600080fd5b611b6889838a01611aba565b93506080880135915080821115611b7e57600080fd5b50611b8b88828901611aba565b9150509295509295909350565b60008060408385031215611bab57600080fd5b611bb483611895565b915060208301356001600160601b038116811461196257600080fd5b60008060408385031215611be357600080fd5b611bec83611895565b91506020830135801515811461196257600080fd5b60008060008060808587031215611c1757600080fd5b611c2085611895565b9350611c2e60208601611895565b925060408501359150606085013567ffffffffffffffff811115611c5157600080fd5b8501601f81018713611c6257600080fd5b611c7187823560208401611a44565b91505092959194509250565b60008060408385031215611c9057600080fd5b611c9983611895565b9150611ca760208401611895565b90509250929050565b600181811c90821680611cc457607f821691505b602082108103611ce457634e487b7160e01b600052602260045260246000fd5b50919050565b634e487b7160e01b600052601160045260246000fd5b808202811582820484141761035b5761035b611cea565b600082611d3457634e487b7160e01b600052601260045260246000fd5b500490565b6020810161035b8284611983565b600060018201611d5957611d59611cea565b5060010190565b601f8211156108b157600081815260208120601f850160051c81016020861015611d875750805b601f850160051c820191505b8181101561122d57828155600101611d93565b815167ffffffffffffffff811115611dc057611dc0611a2e565b611dd481611dce8454611cb0565b84611d60565b602080601f831160018114611e095760008415611df15750858301515b600019600386901b1c1916600185901b17855561122d565b600085815260208120601f198616915b82811015611e3857888601518255948401946001909101908401611e19565b5085821015611e565787850151600019600388901b60f8161c191681555b5050505050600190811b01905550565b604081526000611e79604083018561183d565b8281036020840152611e8b818561183d565b95945050505050565b6001600160a01b0385811682528416602082015260408101839052608060608201819052600090611ec79083018461183d565b9695505050505050565b600060208284031215611ee357600080fd5b815161155c816117e6565b60008351611f00818460208801611819565b835190830190611f14818360208801611819565b0194935050505056fea2646970667358221220155eeb242d4deca0d8aba44b82ee8ce6eae78a23adc159dffa14b1652b87de7b64736f6c63430008140033",
  "linkReferences": {},
  "deployedLinkReferences": {}
}