{
  "_format": "hh-sol-artifact-1",
  "contractName": "VerifierRegistry",
  "sourceName": "contracts/VerifierRegistry.sol",
  "abi": [
    {
      "inputs": [
        {
          "internalType": "address",
          "name": "_usdcToken",
          "type": "address"
        },
        {
          "internalType": "address",
          "name": "_paperNFT",
          "type": "address"
        }
      ],
      "stateMutability": "nonpayable",
      "type": "constructor"
    },
    {
      "inputs": [
        {
          "internalType": "address",
          "name": "owner",
          "type": "address"
        }
      ],
      "name": "OwnableInvalidOwner",
      "type": "error"
    },
    {
      "inputs": [
        {
          "internalType": "address",
          "name": "account",
          "type": "address"
        }
      ],
      "name": "OwnableUnauthorizedAccount",
      "type": "error"
    },
    {
      "anonymous": false,
      "inputs": [
        {
          "indexed": true,
          "internalType": "address",
          "name": "previousOwner",
          "type": "address"
        },
        {
          "indexed": true,
          "internalType": "address",
          "name": "newOwner",
          "type": "address"
        }
      ],
      "name": "OwnershipTransferred",
      "type": "event"
    },
    {
      "anonymous": false,
      "inputs": [
        {
          "indexed": true,
          "internalType": "uint256",
          "name": "tokenId",
          "type": "uint256"
        },
        {
          "indexed": true,
          "internalType": "address",
          "name": "verifier",
          "type": "address"
        },
        {
          "indexed": false,
          "internalType": "bool",
          "name": "approved",
          "type": "bool"
        },
        {
          "indexed": false,
          "internalType": "string",
          "name": "comment",
          "type": "string"
        },
        {
          "indexed": false,
          "internalType": "uint256",
          "name": "timestamp",
          "type": "uint256"
        }
      ],
      "name": "PaperVerified",
      "type": "event"
    },
    {
      "anonymous": false,
      "inputs": [
        {
          "indexed": true,
          "internalType": "address",
          "name": "verifier",
          "type": "address"
        },
        {
          "indexed": false,
          "internalType": "uint256",
          "name": "amount",
          "type": "uint256"
        }
      ],
      "name": "RewardsClaimed",
      "type": "event"
    },
    {
      "anonymous": false,
      "inputs": [
        {
          "indexed": true,
          "internalType": "address",
          "name": "verifier",
          "type": "address"
        },
        {
          "indexed": false,
          "internalType": "uint256",
          "name": "timestamp",
          "type": "uint256"
        }
      ],
      "name": "VerifierRegistered",
      "type": "event"
    },
    {
      "inputs": [],
      "name": "BRONZE_TIER_REQUIREMENT",
      "outputs": [
        {
          "internalType": "uint256",
          "name": "",
          "type": "uint256"
        }
      ],
      "stateMutability": "view",
      "type": "function"
    },
    {
      "inputs": [],
      "name": "GOLD_TIER_REQUIREMENT",
      "outputs": [
        {
          "internalType": "uint256",
          "name": "",
          "type": "uint256"
        }
      ],
      "stateMutability": "view",
      "type": "function"
    },
    {
      "inputs": [],
      "name": "PLATINUM_TIER_REQUIREMENT",
      "outputs": [
        {
          "internalType": "uint256",
          "name": "",
          "type": "uint256"
        }
      ],
      "stateMutability": "view",
      "type": "function"
    },
    {
      "inputs": [],
      "name": "SILVER_TIER_REQUIREMENT",
      "outputs": [
        {
          "internalType": "uint256",
          "name": "",
          "type": "uint256"
        }
      ],
      "stateMutability": "view",
      "type": "function"
    },
    {
      "inputs": [],
      "name": "VERIFICATION_REWARD",
      "outputs": [
        {
          "internalType": "uint256",
          "name": "",
          "type": "uint256"
        }
      ],
      "stateMutability": "view",
      "type": "function"
    },
    {
      "inputs": [
        {
          "internalType": "uint256",
          "name": "tokenId",
          "type": "uint256"
        }
      ],
      "name": "claimReward",
      "outputs": [],
      "stateMutability": "nonpayable",
      "type": "function"
    },
    {
      "inputs": [],
      "name": "fundRewardPool",
      "outputs": [],
      "stateMutability": "payable",
      "type": "function"
    },
    {
      "inputs": [],
      "name": "getAllVerifiers",
      "outputs": [
        {
          "internalType": "address[]",
          "name": "",
          "type": "address[]"
        }
      ],
      "stateMutability": "view",
      "type": "function"
    },
    {
      "inputs": [
        {
          "internalType": "uint256",
          "name": "tokenId",
          "type": "uint256"
        }
      ],
      "name": "getPaperVerifications",
      "outputs": [
        {
          "components": [
            {
              "internalType": "address",
              "name": "verifier",
              "type": "address"
            },
            {
              "internalType": "uint256",
              "name": "tokenId",
              "type": "uint256"
            },
            {
              "internalType": "bool",
              "name": "approved",
              "type": "bool"
            },
            {
              "internalType": "string",
              "name": "comment",
              "type": "string"
            },
            {
              "internalType": "uint256",
              "name": "timestamp",
              "type": "uint256"
            },
            {
              "internalType": "bool",
              "name": "rewardClaimed",
              "type": "bool"
            }
          ],
          "internalType": "struct VerifierRegistry.Verification[]",
          "name": "",
          "type": "tuple[]"
        }
      ],
      "stateMutability": "view",
      "type": "function"
    },
    {
      "inputs": [
        {
          "internalType": "uint256",
          "name": "tokenId",
          "type": "uint256"
        }
      ],
      "name": "getVerificationCount",
      "outputs": [
        {
          "internalType": "uint256",
          "name": "",
          "type": "uint256"
        }
      ],
      "stateMutability": "view",
      "type": "function"
    },
    {
      "inputs": [
        {
          "internalType": "address",
          "name": "verifier",
          "type": "address"
        }
      ],
      "name": "getVerifierStats",
      "outputs": [
        {
          "internalType": "enum VerifierRegistry.Tier",
          "name": "tier",
          "type": "uint8"
        },
        {
          "internalType": "uint256",
          "name": "totalVerifications",
          "type": "uint256"
        },
        {
          "internalType": "uint256",
          "name": "correctVerifications",
          "type": "uint256"
        },
        {
          "internalType": "uint256",
          "name": "rewardsEarned",
          "type": "uint256"
        }
      ],
      "stateMutability": "view",
      "type": "function"
    },
    {
      "inputs": [
        {
          "internalType": "uint256",
          "name": "",
          "type": "uint256"
        },
        {
          "internalType": "address",
          "name": "",
          "type": "address"
        }
      ],
      "name": "hasVerified",
      "outputs": [
        {
          "internalType": "bool",
          "name": "",
          "type": "bool"
        }
      ],
      "stateMutability": "view",
      "type": "function"
    },
    {
      "inputs": [
        {
          "internalType": "address",
          "name": "verifier",
          "type": "address"
        }
      ],
      "name": "isVerifier",
      "outputs": [
        {
          "internalType": "bool",
          "name": "",
          "type": "bool"
        }
      ],
      "stateMutability": "view",
      "type": "function"
    },
    {
      "inputs": [],
      "name": "owner",
      "outputs": [
        {
          "internalType": "address",
          "name": "",
          "type": "address"
        }
      ],
      "stateMutability": "view",
      "type": "function"
    },
    {
      "inputs": [],
      "name": "paperNFT",
      "outputs": [
        {
          "internalType": "contract ResearchPaperNFT",
          "name": "",
          "type": "address"
        }
      ],
      "stateMutability": "view",
      "type": "function"
    },
    {
      "inputs": [
        {
          "internalType": "uint256",
          "name": "",
          "type": "uint256"
        },
        {
          "internalType": "uint256",
          "name": "",
          "type": "uint256"
        }
      ],
      "name": "paperVerifications",
      "outputs": [
        {
          "internalType": "address",
          "name": "verifier",
          "type": "address"
        },
        {
          "internalType": "uint256",
          "name": "tokenId",
          "type": "uint256"
        },
        {
          "internalType": "bool",
          "name": "approved",
          "type": "bool"
        },
        {
          "internalType": "string",
          "name": "comment",
          "type": "string"
        },
        {
          "internalType": "uint256",
          "name": "timestamp",
          "type": "uint256"
        },
        {
          "internalType": "bool",
          "name": "rewardClaimed",
          "type": "bool"
        }
      ],
      "stateMutability": "view",
      "type": "function"
    },
    {
      "inputs": [],
      "name": "registerVerifier",
      "outputs": [],
      "stateMutability": "nonpayable",
      "type": "function"
    },
    {
      "inputs": [],
      "name": "renounceOwnership",
      "outputs": [],
      "stateMutability": "nonpayable",
      "type": "function"
    },
    {
      "inputs": [
        {
          "internalType": "address",
          "name": "newOwner",
          "type": "address"
        }
      ],
      "name": "transferOwnership",
      "outputs": [],
      "stateMutability": "nonpayable",
      "type": "function"
    },
    {
      "inputs": [],
      "name": "usdcToken",
      "outputs": [
        {
          "internalType": "contract IERC20",
          "name": "",
          "type": "address"
        }
      ],
      "stateMutability": "view",
      "type": "function"
    },
    {
      "inputs": [
        {
          "internalType": "uint256",
          "name": "",
          "type": "uint256"
        }
      ],
      "name": "verifierList",
      "outputs": [
        {
          "internalType": "address",
          "name": "",
          "type": "address"
        }
      ],
      "stateMutability": "view",
      "type": "function"
    },
    {
      "inputs": [
        {
          "internalType": "address",
          "name": "",
          "type": "address"
        }
      ],
      "name": "verifiers",
      "outputs": [
        {
          "internalType": "bool",
          "name": "registered",
          "type": "bool"
        },
        {
          "internalType": "enum VerifierRegistry.Tier",
          "name": "tier",
          "type": "uint8"
        },
        {
          "internalType": "uint256",
          "name": "totalVerifications",
          "type": "uint256"
        },
        {
          "internalType": "uint256",
          "name": "correctVerifications",
          "type": "uint256"
        },
        {
          "internalType": "uint256",
          "name": "rewardsEarned",
          "type": "uint256"
        },
        {
          "internalType": "uint256",
          "name": "joinedAt",
          "type": "uint256"
        }
      ],
      "stateMutability": "view",
      "type": "function"
    },
    {
      "inputs": [
        {
          "internalType": "uint256",
          "name": "tokenId",
          "type": "uint256"
        },
        {
          "internalType": "bool",
          "name": "approved",
          "type": "bool"
        },
        {
          "internalType": "string",
          "name": "comment",
          "type": "string"
        }
      ],
      "name": "verifyPaper",
      "outputs": [],
      "stateMutability": "nonpayable",
      "type": "function"
    },
    {
      "inputs": [
        {
          "internalType": "uint256",
          "name": "amount",
          "type": "uint256"
        }
      ],
      "name": "withdrawFunds",
      "outputs": [],
      "stateMutability": "nonpayable",
      "type": "function"
    }
  ],
  "bytecode": "0x60c03461018e576200163990601f38839003908101601f19168201906001600160401b03821183831017610193578083916040958694855283398101031261018e57610056602061004f836101a9565b92016101a9565b9033156101765760008054336001600160a01b03198216811783558551946001600160a01b0394909385939192918416907f8be0079c531659141344cd1fd0a4f28419497f9722a3daafe3b4186f6b6457e09080a3169283156101345750169081156100f05760805260a0525161147b9081620001be823960805181818161096d015281816110950152611109015260a05181610f150152f35b825162461bcd60e51b815260206004820152601360248201527f496e76616c6964204e46542061646472657373000000000000000000000000006044820152606490fd5b62461bcd60e51b815260206004820152601560248201527f496e76616c696420746f6b656e206164647265737300000000000000000000006044820152606490fd5b8251631e4fbdf760e01b815260006004820152602490fd5b600080fd5b634e487b7160e01b600052604160045260246000fd5b51906001600160a01b038216820361018e5756fe608080604052600436101561001357600080fd5b60003560e01c90816311eac855146110f657508063155dd5ee146110555780631d1ae7d814611038578063208283391461102a5780633310521814610feb57806333ced3f214610f44578063353a173f14610eff578063418ab77014610ee35780634e4a6f0a14610ec657806356563e4a14610e7457806357762ddd14610e3257806368fad92714610d8f5780636c82448714610d10578063715018a614610cb75780638da5cb5b14610c8e5780639345a22e14610b17578063ae169a50146108b2578063af8d1555146107ea578063baedad9b146107cd578063d42dc2da14610390578063ea968a2d14610205578063f2fde38b14610177578063fa3a38481461014b5763fd4f9a211461012757600080fd5b346101465760003660031901126101465760206040516302faf0808152f35b600080fd5b346101465760203660031901126101465760043560005260036020526020604060002054604051908152f35b3461014657602036600319011261014657610190611138565b610198611322565b6001600160a01b039081169081156101ec57600054826bffffffffffffffffffffffff60a01b821617600055167f8be0079c531659141344cd1fd0a4f28419497f9722a3daafe3b4186f6b6457e0600080a3005b604051631e4fbdf760e01b815260006004820152602490fd5b346101465760003660031901126101465733600052600160205260ff6040600020541661035657604051610238816111fe565b600181526020810160008152604082019060008252606083016000815260808401906000825260a085019242845233600052600160205261028d604060002096511515879060ff801983541691151516179055565b519360048510156103405760049461ff0087549160081b169061ff00191617865551600186015551600285015551600384015551910155600254600160401b81101561032a578060016102e3920160025561115b565b81549060031b9033821b9160018060a01b03901b19161790556040514281527f983b8264b64c9863a439320eb632213f6e5ca279753b012988656784757d977560203392a2005b634e487b7160e01b600052604160045260246000fd5b634e487b7160e01b600052602160045260246000fd5b60405162461bcd60e51b8152602060048201526012602482015271105b1c9958591e481c9959da5cdd195c995960721b6044820152606490fd5b346101465760603660031901126101465760243580151581036101465767ffffffffffffffff60443511610146573660236044350112156101465767ffffffffffffffff604435600401351161014657366024604435600401356044350101116101465733600052600160205260ff604060002054161561078857600435600052600460205260406000203360005260205260ff604060002054166107435760043560005260036020526040600020906040519161044d836111fe565b338352600435602084015281151560408401526040519061047e6020601f19601f604435600401350116018361121a565b604435600481013580845290602401602084013760006020604435600401358401015260608401918252426080850152600060a08501528054600160401b81101561032a576104d2916001820181556111a8565b91909161072d5760018060a01b038451166bffffffffffffffffffffffff60a01b8354161782556020840151600183015561052260408501511515600284019060ff801983541691151516179055565b5192835167ffffffffffffffff811161032a5761054260038401546111c4565b601f81116106e6575b506020601f821160011461066e57918160a0926005946105a79798600092610663575b50508160011b916000199060031b1c19161760038501555b608081015160048501550151151591019060ff801983541691151516179055565b60043560005260046020526040600020336000526020526040600020600160ff19825416179055600160205260016040600020016105e5815461134e565b905560405190151581526060602082018190526044356004810135918301829052602401608083013760006080604435600401358301015242604082015233907f2a4008ceaff37b198ab09ba15ea3aad7a7066445074811ffa88d3faf65a6280960043591608081601f19601f6044356004013501168101030190a3005b01519050888061056e565b6003840160005260206000209560005b601f19841681106106ce5750826105a796976005959360019360a096601f198116106106b5575b505050811b016003850155610586565b015160001960f88460031b161c191690558880806106a5565b8282015188556001909701966020928301920161067e565b600384016000526020600020601f830160051c810160208410610726575b601f830160051c8201811061071a57505061054b565b60008155600101610704565b5080610704565b634e487b7160e01b600052600060045260246000fd5b60405162461bcd60e51b815260206004820152601b60248201527f416c7265616479207665726966696564207468697320706170657200000000006044820152606490fd5b60405162461bcd60e51b815260206004820152601a60248201527f4e6f7420726567697374657265642061732076657269666965720000000000006044820152606490fd5b34610146576000366003190112610146576020604051611d4c8152f35b3461014657600036600319011261014657604051806002548083526020809301809160026000527f405787fa12a823e0f2b7631cc41b3ba8828b3321ca811111fa75cd3aa3bb5ace9060005b8682821061089557868661084c8288038361121a565b604051928392818401908285525180915260408401929160005b82811061087557505050500390f35b83516001600160a01b031685528695509381019392810192600101610866565b83546001600160a01b031685529093019260019283019201610836565b3461014657602080600319360112610146573360005260019081815260ff806040600020541615610ae157600435600052600382526040600020600080926000908354915b828110610a8c575b50505015610a4757600591610913916111a8565b50018260ff19825416179055336000528181526002604060002001610938815461134e565b9055610943336113b3565b60405163a9059cbb60e01b81523360048201526302faf080602482018190529290828160448160007f00000000000000000000000000000000000000000000000000000000000000006001600160a01b03165af18015610a3b576109af91600091610a0e575b50611375565b33600052815260036040600020019081548381018091116109f8577ffc30cddea38e2bf4d6ea7d3f9ed3b6ad7f176419f4963bd81318067a4aee73fe92556040519283523392a2005b634e487b7160e01b600052601160045260246000fd5b610a2e9150843d8611610a34575b610a26818361121a565b81019061135d565b856109a9565b503d610a1c565b6040513d6000823e3d90fd5b60405162461bcd60e51b815260048101849052601960248201527f4e6f20756e636c61696d65642072657761726420666f756e64000000000000006044820152606490fd5b610a9681866111a8565b50546001600160a01b0316331480610ac9575b610abb57610ab69061134e565b6108f7565b9450505050838580806108ff565b50816005610ad783886111a8565b5001541615610aa9565b60405162461bcd60e51b815260048101839052600e60248201526d139bdd081c9959da5cdd195c995960921b6044820152606490fd5b3461014657602080600319360112610146576004356000526003908181526040600020805467ffffffffffffffff811161032a579160405192600594610b618383881b018661121a565b81855260009384528284208386019491855b848410610c1f575050505050604051928184019082855251809152604081818601961b85010192916000955b828710610bac5785850386f35b909192938280600192603f19898203018552875190848060a01b0382511681528282015183820152604082015115156040820152610bf96060808401519060c080918501528301906112e2565b916080808201519083015260a08091015115159101529601920196019592919092610b9f565b60068660019260409a989a51610c34816111fe565b848060a01b038754168152848701548382015260ff8060028901541615156040830152610c6287890161123c565b6060830152600488015460808301528d88015416151560a0820152815201930193019291969496610b73565b34610146576000366003190112610146576000546040516001600160a01b039091168152602090f35b3461014657600036600319011261014657610cd0611322565b600080546001600160a01b0319811682556001600160a01b03167f8be0079c531659141344cd1fd0a4f28419497f9722a3daafe3b4186f6b6457e08280a3005b34610146576020366003190112610146576001600160a01b03610d31611138565b16600052600160205260c0604060002080549060018101549060028101546004600383015492015492610d796040519560ff81161515875260ff602088019160081c1661114e565b60408501526060840152608083015260a0820152f35b34610146576040366003190112610146576024356004356000526003602052604060002090815481101561014657610dc6916111a8565b5060018060a01b0381541660018201549160ff600282015416610e21610dee6003840161123c565b60ff600560048601549501541692604051968796875260208701521515604086015260c0606086015260c08501906112e2565b916080840152151560a08301520390f35b346101465760203660031901126101465760043560025481101561014657610e5b60209161115b565b905460405160039290921b1c6001600160a01b03168152f35b34610146576040366003190112610146576024356001600160a01b03811690819003610146576004356000526004602052604060002090600052602052602060ff604060002054166040519015158152f35b346101465760003660031901126101465760206040516117708152f35b3461014657600036600319011261014657602060405160008152f35b34610146576000366003190112610146576040517f00000000000000000000000000000000000000000000000000000000000000006001600160a01b03168152602090f35b34610146576020366003190112610146576001600160a01b03610f65611138565b166000526001602052604060002060405190610f80826111fe565b60ff81548181161515845260081c1690600482101561034057828260206080950152600182015480604083015260028301549182606082015260a0600460038601549586898501520154910152610fda604051809561114e565b602084015260408301526060820152f35b34610146576020366003190112610146576001600160a01b0361100c611138565b166000526001602052602060ff604060002054166040519015158152f35b600036600319011261014657005b346101465760003660031901126101465760206040516123288152f35b346101465760203660031901126101465761106e611322565b60405163a9059cbb60e01b81523360048083019190915235602482015260208160448160007f00000000000000000000000000000000000000000000000000000000000000006001600160a01b03165af18015610a3b576110d6916000916110d85750611375565b005b6110f0915060203d8111610a3457610a26818361121a565b826109a9565b34610146576000366003190112610146577f00000000000000000000000000000000000000000000000000000000000000006001600160a01b03168152602090f35b600435906001600160a01b038216820361014657565b9060048210156103405752565b6002548110156111925760026000527f405787fa12a823e0f2b7631cc41b3ba8828b3321ca811111fa75cd3aa3bb5ace0190600090565b634e487b7160e01b600052603260045260246000fd5b8054821015611192576000526006602060002091020190600090565b90600182811c921680156111f4575b60208310146111de57565b634e487b7160e01b600052602260045260246000fd5b91607f16916111d3565b60c0810190811067ffffffffffffffff82111761032a57604052565b90601f8019910116810190811067ffffffffffffffff82111761032a57604052565b9060405191826000825492611250846111c4565b9081845260019485811690816000146112bf575060011461127c575b505061127a9250038361121a565b565b9093915060005260209081600020936000915b8183106112a757505061127a9350820101388061126c565b8554888401850152948501948794509183019161128f565b91505061127a94506020925060ff191682840152151560051b820101388061126c565b919082519283825260005b84811061130e575050826000602080949584010152601f8019910116010190565b6020818301810151848301820152016112ed565b6000546001600160a01b0316330361133657565b60405163118cdaa760e01b8152336004820152602490fd5b60001981146109f85760010190565b90816020910312610146575180151581036101465790565b1561137c57565b60405162461bcd60e51b815260206004820152600f60248201526e151c985b9cd9995c8819985a5b1959608a1b6044820152606490fd5b60018060a01b03166000526001602052604060002060018101548015611441576002820154612710908181029181830414901517156109f8570461232881106114065750805461ff001916610300179055565b611d4c811061141f5750805461ff001916610200179055565b6117701161143657805461ff001916610100179055565b805461ff0019169055565b505056fea264697066735822122004bf086a9af828856adae606d90ab55ca67a884f9e451171902d0849f78e68db64736f6c63430008140033",
  "linkReferences": {},
  "deployedLinkReferences": {}
}